S00F000030372D756172742E73726563C5
S11300000C9434000C9451000C9451000C94510045
S11300100C9451000C9451000C9451000C94510018
S11300200C9451000C9451000C9451000C94510008
S11300300C9451000C9435010C9451000C94510013
S11300400C9451000C9451000C9458020C948602A8
S11300500C9451000C944A010C9451000C945100DE
S11300600C9451000C94510011241FBECFEFD8E022
S1130070DEBFCDBF11E0A0E0B1E0E8E4F6E002C0ED
S113008005900D92A035B107D9F721E0A0E5B1E0C4
S113009001C01D92A539B207E1F70E94EA000C9451
S11300A022030C940000299A000029980895CF9304
S11300B0C82F662311F0289A01C02898549A559A9B
S11300C0569A579A5F985E985D985C98CC230CF486
S11300D05F9AC6FD5E9AC5FD5D9AC4FD5C9A0E9456
S11300E053005F985E985D985C98C3FD5F9AC2FD6B
S11300F05E9AC1FD5D9AC0FD5C9A0E9453005C9AB1
S11301005D9A5E9A5F9A8AEF8A95F1F7CF91089586
S113011060E00E9457000895611104C080580E9455
S11301208800089580540E948800089581E00E9408
S11301308800089561E00E9457000895CF93DF93EB
S1130140EC012196FC018081882329F00E949A0009
S113015089918111FBCFDF91CF910895CF93C82F5F
S1130160209A559A219A549A559A569A579A8FE9F1
S11301709FE00197F1F700C000005D9A5C9A0E942D
S1130180530081EE94E00197F1F700C000000E9453
S1130190530095E19A95F1F700000E94530085E120
S11301A08A95F1F700005C980E94530095E19A95B6
S11301B0F1F7000088E20E94880088E00E9488002D
S11301C00E94960086E00E9488008C2F0E9488007E
S11301D0CF9108958CE00E94AE0060E081E00E941F
S11301E08C0080E091E00E949E0061E083E00E9428
S11301F08C0087E091E00E949E00ECE7F0E08081B3
S11302008064808380818F7780838081877F8083EF
S113021080818B7F808380818D7F808380818E7FAE
S11302208083EAE7F0E08081806880838081886051
S113023080838081846080838081826080838081E8
S113024081608083E1E8F0E080818B7F808380811E
S113025083608083EFE6F0E080818160808387E6BD
S113026090E00E94B0027894FFCF1F920F920FB6D5
S11302700F9211248F93EF93FF93EAE7F0E08081CC
S113028080648083FF91EF918F910F900FBE0F9048
S11302901F9018951F920F920FB60F9211240F936F
S11302A01F932F933F934F935F936F937F938F93FA
S11302B09F93AF93BF93EF93FF93CF93DF93CDB708
S11302C0DEB72597DEBFCDBF00917800109179008D
S11302D04AE0BE016F5F7F4FC8010E94ED0260E0FB
S11302E088E00E948C008CE291E00E949E0060E015
S11302F088E00E948C00CE0101960E949E0000FDC1
S113030009C061E08FE00E948C008CE091E00E94C3
S11303109E0008C061E08FE00E948C008EE091E0B6
S11303200E949E000C3B82E0180760F480E191E09B
S11303300E94DE02CE0101960E94DE0287E291E075
S11303400E94DE0240E1BE016F5F7F4FC8010E9440
S1130350ED0260E08DE00E948C008CE291E00E944E
S11303609E0060E08DE00E948C00CE0101960E9408
S11303709E0061E088E00E948C008CE291E00E9483
S11303809E00083F83E0180788F061E088E00E943F
S11303908C008AE291E00E949E0061E088E00E9465
S11303A08C0081E391E00E949E0068C0C8018158DE
S11303B09240439788F461E088E00E948C008AE2CE
S11303C091E00E949E0061E088E00E948C0086E338
S11303D091E00E949E0052C0C80187589140439703
S11303E088F461E088E00E948C008AE291E00E9437
S11303F09E0061E088E00E948C008DE391E00E9401
S11304009E003CC0C801875E91094D9788F461E065
S113041088E00E948C008AE291E00E949E0061E0E4
S113042088E00E948C0082E491E00E949E0026C035
S11304300B5511090331110588F461E088E00E942D
S11304408C008AE291E00E949E0061E088E00E94B4
S11304508C0087E491E00E949E0010C061E088E077
S11304600E948C008AE291E00E949E0061E088E094
S11304700E948C008AE491E00E949E000F900F90ED
S11304800F900F900F90DF91CF91FF91EF91BF915B
S1130490AF919F918F917F916F915F914F913F9118
S11304A02F911F910F910F900FBE0F901F901895D1
S11304B01F920F920FB60F9211242F938F939F9335
S11304C0EF93FF938091C0002091C6008C71E0915E
S11304D05201EF5FEF7190915101E91739F0E09308
S11304E05201F0E0EB5AFE4F208301C082E090916C
S11304F05001892B80935001FF91EF919F918F912F
S11305002F910F900FBE0F901F9018951F920F926E
S11305100FB60F9211248F939F93EF93FF939091B3
S1130520540180915301981769F0E0915301EF5FF2
S1130530EF71E0935301F0E0EB58FE4F808180931C
S1130540C60005C0E1ECF0E080818F7D8083FF91DF
S1130550EF919F918F910F900FBE0F901F90189560
S113056010925401109253011092520110925101B1
S113057099231CF422E02093C00090789093C50046
S11305808093C40088E98093C10086E08093C20010
S11305900895209154012F5F2F71909153012917D1
S11305A0E1F3E22FF0E0EB58FE4F808320935401F7
S11305B0E1ECF0E08081806280830895CF93DF9343
S11305C0EC018881882331F021960E94C902899127
S11305D08111FBCFDF91CF910895BB274A3031F4CD
S11305E0992322F4BDE2909581959F4F0C94F902D2
S11305F0BB27FB015527AA27880F991FAA1FA417F9
S113060010F0A41B83955051B9F7A05DAA3308F0EC
S1130610A95DA193009779F7B111B1931192CB0120
S11306200C941203DC01FC01672F71917723E1F72D
S1130630329704C07C916D9370836291AE17BF07AB
S10B0640C8F30895F894FFCFFC
S113064876616C75653A006B65793A003000310063
S11306584144432076616C756520696E2064656346
S1130668696D616C3A20000A0D00202020202020AA
S1130678004E6F6E650053656C656374004C656667
S11306887400446F776E005570005269676874008F
S9030000FC
