S00D00004D6F7273652E7372656311
S11300000C9434000C943E000C943E000C943E007E
S11300100C943E000C943E000C943E000C943E0064
S11300200C943E000C943E000C943E000C943E0054
S11300300C943E000C943E000C943E000C943E0044
S11300400C943E000C943E000C943E000C943E0034
S11300500C943E000C943E000C943E000C943E0024
S11300600C943E000C943E0011241FBECFEFD8E048
S1130070DEBFCDBF0E9440000C944A010C940000E6
S1130080259A2D9880E22FEF33ED40E32150304044
S11300904040E1F700C0000095B1982795B99FEF63
S11300A023ED30E3915020403040E1F700C00000E0
S11300B095B1982795B94FEF99E628E141509040C2
S11300C02040E1F700C0000095B1982795B93FEFB3
S11300D049E698E1315040409040E1F700C000000B
S11300E095B1982795B92FEF39E648E12150304072
S11300F04040E1F700C0000095B1982795B99FEF03
S113010029E638E1915020403040E1F700C000007A
S113011095B1982795B94FEF99E628E14150904061
S11301202040E1F700C000003FEF43E294EF31507C
S113013040409040E1F700C0000095B1982795B980
S11301402FEF39E648E1215030404040E1F700C04C
S1130150000095B1982795B99FEF29E638E19150B1
S113016020403040E1F700C000004FEF93E224EF5D
S1130170415090402040E1F700C0000095B198271D
S113018095B93FEF49E698E1315040409040E1F79E
S113019000C0000095B1982795B92FEF39E648E1E2
S11301A0215030404040E1F700C0000095B198274D
S11301B095B99FEF29E638E1915020403040E1F7AE
S11301C000C0000095B1982795B94FEF99E628E152
S11301D0415090402040E1F700C0000095B19827BD
S11301E095B93FEF43ED90E3315040409040E1F743
S11301F000C0000095B1982795B92FEF39E648E182
S1130200215030404040E1F700C0000095B19827EC
S113021095B99FEF23ED30E3915020403040E1F752
S113022000C0000095B1982795B94FEF99E628E1F1
S1130230415090402040E1F700C0000095B198275C
S113024095B93FEF43ED90E3315040409040E1F7E2
S113025000C0000095B1982795B92FEF39E648E121
S1130260215030404040E1F700C000009FEF23E2FE
S113027034EF915020403040E1F700C000004AEADA
S113028096EE26E931E04150904020403040D9F7C5
S10B02900000F9CEF894FFCF41
S9030000FC
