S00E000030362D6C63642E7372656350
S11300000C9434000C9451000C9451000C94510045
S11300100C9451000C9451000C9451000C94510018
S11300200C9451000C9435010C9451000C94510023
S11300300C9451000C9451000C9451000C945100F8
S11300400C942C020C9451000C9451000C9451000B
S11300500C9451000C9451000C9451000C945100D8
S11300600C9451000C94510011241FBECFEFD8E022
S1130070DEBFCDBF11E0A0E0B1E0E4E5F5E002C0F1
S113008005900D92A434B107D9F721E0A4E4B1E0BE
S113009001C01D92AC34B207E1F70E94EE000C944B
S11300A0A8020C940000299A000029980895CF937F
S11300B0C82F662311F0289A01C02898549A559A9B
S11300C0569A579A5F985E985D985C98CC230CF486
S11300D05F9AC6FD5E9AC5FD5D9AC4FD5C9A0E9456
S11300E053005F985E985D985C98C3FD5F9AC2FD6B
S11300F05E9AC1FD5D9AC0FD5C9A0E9453005C9AB1
S11301005D9A5E9A5F9A8AEF8A95F1F7CF91089586
S113011060E00E945700089561E00E94570008952E
S1130120611104C080580E948800089580540E9480
S11301308800089581E00E948800089561E00E948B
S113014057000895CF93DF93EC012196FC01808141
S1130150882329F00E949E0089918111FBCFDF91B1
S1130160CF910895CF93C82F209A559A219A549AE3
S1130170559A569A579A8FE99FE00197F1F700C074
S113018000005D9A5C9A0E94530081EE94E001970E
S1130190F1F700C000000E94530095E19A95F1F731
S11301A000000E94530085E18A95F1F700005C98F5
S11301B00E94530095E19A95F1F7000088E20E94AD
S11301C0880088E00E9488000E949A0086E00E94CD
S11301D088008C2F0E948800CF9108958CE00E94A3
S11301E0B20080E40E948800C0E0D1E000E311E0A6
S11301F089910E948C00C017D107D1F780E80E9432
S1130200880060E081E00E94900080E391E00E9419
S1130210A20060E08BE00E94900081E60E949E00B4
S113022061E081E00E94900082E60E949E0061E00D
S11302308BE00E94900083E60E949E00E1EBF0E0D8
S1130240808187608083E0E7F0E080818160808343
S113025085B58D7F85BD85B5856085BDEEE6F0E00D
S11302608081816080837894FFCF1F920F920FB6B4
S11302700F9211242F933F934F935F936F937F9328
S11302808F939F93AF93BF93EF93FF93CF93DF939A
S113029000D0CDB7DEB780E290E29A838983809163
S11302A04B018F5F863018F480934B01C0C01092CD
S11302B04B0180914A018F5F8A3018F480934A0180
S11302C0A5C010924A01809149018F5F8A3018F4C9
S11302D08093490163C010924901809148018F5F66
S11302E080934801863008F448C04AE0BE016F5F3D
S11302F07F4F80E090E00E94730260E08BE00E94F8
S113030090008EE391E00E94A20010924801809137
S113031047018F5F8A3018F4809347011DC0109203
S11303204701809146018F5F863018F4809346011F
S113033002C010924601809146014AE0BE016F5FFF
S11303407F4F90E00E94730260E081E00E94900081
S1130350CE0101960E94A200809147014AE0BE01AD
S11303606F5F7F4F90E00E94730260E082E00E9422
S11303709000CE0101960E94A200809148014AE0BB
S1130380BE016F5F7F4F90E00E94730260E084E0E3
S11303900E949000CE0101960E94A2008091490122
S11303A04AE0BE016F5F7F4F90E00E94730260E0FD
S11303B085E00E949000CE0101960E94A200209147
S11303C0480130E0C901880F991F220F331F220F03
S11303D0331F220F331F820F931F20914901820F75
S11303E0911D4AE0BE016F5F7F4F9C01229FC001B7
S11303F0239F900D900D11240E94730260E08BE006
S11304000E949000CE0101960E94A20080914A01B0
S11304104AE0BE016F5F7F4F90E00E94730260E08C
S113042087E00E949000CE0101960E94A2000F90E6
S11304300F90DF91CF91FF91EF91BF91AF919F9179
S11304408F917F916F915F914F913F912F910F9079
S11304500FBE0F901F9018951F920F920FB60F9218
S113046011242F933F934F935F936F937F938F93B5
S11304709F93AF93BF93EF93FF93809145018F5F59
S1130480863018F48093450114C010924501809180
S113049044018F5F8B3018F4809344010AC081E0DB
S11304A08093440161E00E94900088E391E00E94FF
S11304B0A20061E0809144010E9490008091450176
S11304C00E949E00FF91EF91BF91AF919F918F91F8
S11304D07F916F915F914F913F912F910F900FBE3C
S11304E00F901F901895BB274A3031F4992322F4BA
S11304F0BDE2909581959F4F0C947F02BB27FB0131
S11305005527AA27880F991FAA1FA41710F0A41B08
S113051083955051B9F7A05DAA3308F0A95DA19362
S1130520009779F7B111B1931192CB010C94980211
S1130530DC01FC01672F71917723E1F7329704C046
S11305407C916D9370836291AE17BF07C8F30895D1
S1070550F894FFCF49
S11305540000000000000000101010101010101013
S113056418181818181818181C1C1C1C1C1C1C1CE3
S11305741E1E1E1E1E1E1E1E1F1F1F1F1F1F1F1F8B
S113058430303A30302E300020202020202020200B
S1070594202000001F
S9030000FC
