S01400004B6E696768745F52696465722E7372656356
S11300000C9434000C943E000C943E000C943E007E
S11300100C943E000C943E000C943E000C943E0064
S11300200C943E000C943E000C943E000C943E0054
S11300300C943E000C943E000C943E000C943E0044
S11300400C943E000C943E000C943E000C943E0034
S11300500C943E000C943E000C943E000C943E0024
S11300600C943E000C943E0011241FBECFEFD8E048
S1130070DEBFCDBF0E9440000C9424010C9400000C
S1130080219A229A239A249A259A5098589A299820
S11300902A982B982C982D9880E090E034E0912CAD
S11300A0A12C48E00F2EF7E0BF2EF02DC12C50E11B
S11300B00F2EF6E0DF2EF02DE12CE0E20F2EF5E01E
S11300C0FF2EF02D812C14E0D0E0C3E0B0E0A2E0DC
S11300D0F0E022E071E060E0489914C0009791F4E8
S11300E085B1822785B90FEF84E39CE001508040FD
S11300F09040E1F700C0000085B1822785B9872FC1
S1130100962FEACF489915C08130910591F485B1B5
S1130110832785B90FEF84E39CE001508040904031
S1130120E1F700C0000085B1832785B98A2F9F2F8E
S1130130D3CF489915C08230910591F485B18427B5
S113014085B90FEF84E39CE0015080409040E1F7D3
S113015000C0000085B1842785B98C2F9B2FBCCFAC
S1130160489915C08330910591F485B1852785B9E7
S11301700FEF84E39CE0015080409040E1F700C021
S1130180000085B1852785B9812F9D2FA5CF48997A
S113019015C08430910591F485B18E2785B90FEF90
S11301A084E39CE0015080409040E1F700C00000EF
S11301B085B18E2785B98F2D982D8ECF489915C07E
S11301C08530910591F485B1852785B90FEF84E3D6
S11301D09CE0015080409040E1F700C0000085B1F0
S11301E0852785B98D2D9E2D77CF489915C08630EA
S11301F0910591F485B1842785B90FEF84E39CE0E0
S1130200015080409040E1F700C0000085B1842790
S113021085B98B2D9C2D60CF48995ECF8730910591
S113022009F05ACF85B1832785B90FEF84E39CE0A9
S1130230015080409040E1F700C0000085B1832761
S10F024085B9892D9A2D48CFF894FFCF82
S9030000FC
